:020000040800F2
:10000000680600204D02000855020008570200084B
:10001000590200085B0200085D02000800000000B1
:100020000000000000000000000000005F02000867
:100030006102000800000000630200086502000879
:10004000670200086702000867020008000000005D
:10005000000000006702000867020008670200084D
:10006000670200080000000067020008670200083D
:10007000670200080000000067020008670200082D
:10008000670200086702000800000000670200081D
:1000900067020008000000000000000000000000EF
:1000A00000000000000000000000000067020008DF
:1000B000670200086702000867020008670200087C
:1000C00000F002F800F03AF80AA090E8000C824430
:1000D0008344AAF10107DA4501D100F02FF8AFF20D
:1000E000090EBAE80F0013F0010F18BFFB1A43F016
:1000F00001031847D80A0000F80A0000103A24BF8C
:1001000078C878C1FAD8520724BF30C830C144BF7C
:1001100004680C60704700000023002400250026BE
:10012000103A28BF78C1FBD8520728BF30C148BF5A
:100130000B6070471FB51FBD10B510BD00F00FFD5F
:100140001146FFF7F7FF00F071F800F02DFD03B442
:10015000FFF7F2FF03BC00F031FD00000EB50020F8
:100160008DF802008DF8080001208DF80A008DF846
:1001700009004020ADF800006946054800F004F988
:100180000EBD10B54021024800F0A3F910BD0000DB
:1001900000800E4010B500F02EFA012000F03EFA6B
:1001A00000F058FA08B900BFFEE70421022000F071
:1001B000D2FA012000F0EDFA00F0EEFA08B900BF23
:1001C000FEE7012000F0E1FA4FF4807000F0B3F98F
:1001D0000121480700F0A2F90121480600F09EF92C
:1001E00010BD00000EB501208DF8020000208DF832
:1001F000080001208DF80A0003208DF80900012075
:10020000ADF800006946084800F0BEF80EBD10B514
:1002100004460CB1012000E0002002460121024802
:1002200000F06EF910BD000000800C400024FFF7C4
:10023000B1FFFFF7D7FFFFF791FF05E0FFF7A1FF41
:1002400004462046FFF7E3FFF8E70000094880472F
:1002500009480047FEE7FEE7FEE7FEE7FEE7FEE7A8
:10026000FEE7FEE7FEE7FEE704480549054A064BC0
:10027000704700001F030008C1000008680000204C
:1002800068060020680200206802002070B5334A2A
:10029000D26802F00202022A01D1314800E031485E
:1002A0002E4AD26812F0010F00D0400801462B4AB6
:1002B000D26802F00402042A05D1284A5268C2F327
:1002C0000322541C6143254AD268C2F3012222B1A1
:1002D000012A06D0022A1BD115E0224D224E35609C
:1002E0001BE01E4DED68C5F3031212F0080F06D097
:1002F00002F0070202259540B1FBF5F300E00B4642
:10030000194D2B6009E04FF40045174E356004E0AD
:1003100049F64045144E356000BF00BF70BD00B5C2
:100320004FF000601149086011480C49C861084647
:10033000C0680020C8600846406800204860084641
:10034000806800208860084600690020086108462F
:10035000406900204861FFF799FF00BD000002409E
:100360000024F40000127A000000002008ED00E0F4
:10037000100000080021C1600161416001608160DE
:1003800041618161C16170472DE9FE4F4468856814
:10039000C6680769D0F814C0D0F81880D0F81C904F
:1003A000002201234FF0030ACDF804A04FF0011AF8
:1003B000CDF800A0B1F800A0CDF808A06AE0DDF803
:1003C00008A01AF0010F51D024EA030A91F802B0F4
:1003D0000BFA02FB4AEA0B0491F808A04FEA420B21
:1003E0000AFA0BFADDF804B025EA0B0B4AEA0B0512
:1003F00026EA030A91F80AB00BFA02FB4AEA0B0656
:10040000DDF800A027EA0A0A91F803B002F1100E05
:100410000BFA0EFB4AEA0B0A91F804B00BFA02FB46
:100420004AEA0B07DDF800B02CEA0B0A91F805B098
:100430000BFA0EFB4AEA0B0A91F806B00BFA02FB24
:100440004AEA0B0C91F809A04FEA420B0AFA0BFAA0
:10045000DDF804B028EA0B0B4AEA0B0829EA030A84
:1004600091F807B00BFA02FB4AEA0B095B00DDF8D2
:1004700004A04FEA8A0ACDF804A0DDF800A04FEAF4
:100480004A0ACDF800A0521CDDF808A04FEA5A0A2B
:10049000CDF808A0DDF808A0BAF1000F8FD14460B4
:1004A0008560C6600761C0F814C0C0F81880C0F845
:1004B0001C90BDE8FE8F4FF6FF7101800021817016
:1004C000C170017141718171C1710172417281729A
:1004D0007047024613680B4201D0012000E0002063
:1004E000704701460868704702680A430260704717
:1004F00002688A430260704702688A43026070475C
:1005000010B503681AB143EA0104046002E023EA6B
:100510000104046010BD01607047000029B1FE4A6B
:10052000D2690243FC4BDA6104E0FB4AD2698243A0
:10053000F94BDA6170470146F74AD06820F4407001
:100540000843D060704710B5014601F0E003202B4E
:1005500002D1F14B1A6801E0F04BDA6B01F01F0495
:100560000123A340134201D0012000E0002010BD70
:1005700038B50020009000BF1720FFF7E4FF0546C4
:100580000098401C00900098B0F5C06F01D2002D7B
:10059000F2D01720FFF7D7FF08B1012400E00024B4
:1005A000204638BD0021DE4A1060704700B50120AA
:1005B000FFF7F8FFFFF7DCFF0020FFF7BCFFD6488E
:1005C000C0680020D449C8600846406800204860E0
:1005D000084680680020886008460069002008619D
:1005E000084640690020486108468069002088610B
:1005F000CC48C86100BD00B5FFF7D8FF0121C8068F
:10060000FFF78CFFC548C06B40F48100C349C86345
:100610000846C06B00F48100C86300BDBE4989680C
:1006200021F00301BC4A9160012802D002280ED1BA
:1006300006E0B949896841F00101B74A916007E0D5
:10064000B549896841F00301B34A916000E000BFF9
:1006500000BF704738B50020009000BF2220FFF790
:1006600072FF05460098401C00900098B0F5C06FDE
:1006700001D2002DF2D02220FFF765FF08B101243E
:1006800000E00024204638BDA449C96B21F00301D5
:10069000A24AD163012802D002280ED106E09F4968
:1006A000C96B41F001019D4AD16307E09B49C96BC9
:1006B00041F00301994AD16300E000BF00BF7047D9
:1006C00038B50020009000BF0D20FFF73CFF054625
:1006D0000098401C00900098B0F5C06F01D2002D2A
:1006E000F2D00D20FFF72FFF08B1012400E0002415
:1006F000204638BD0146894AD06B20F07C5040EA44
:100700000160D06370470021854A1C3A1060704731
:100710000146824AD06B20F4F81040EA0140D063D1
:10072000704738B50020009000BF1520FFF70BFF81
:1007300005460098401C00900098B0F5C06F01D2AB
:10074000002DF2D01520FFF7FEFE08B1012400E0D5
:100750000024204638BD10B502466F4BD86820F003
:1007600003001043D860586820F4706040EA01200C
:1007700058606D4B1B683BB101236C4C23604FF0FC
:1007800000036B4CC4F88C3010BD0021694A106026
:10079000704765490860704738B50020009000BF79
:1007A0002120FFF7D0FE05460098401C00900098DD
:1007B000B0F5C06F01D2002DF2D02120FFF7C3FEAB
:1007C00008B1012400E00024204638BD0146524A09
:1007D000D06820F0F00040EA0110D060704710B5FA
:1007E00002464D4B186920F0030010431861586809
:1007F00020F0F00040EA011058604F4B1B683BB1FD
:1008000001234E4C23604FF00003494CC4F8843060
:1008100010BD00214A4A106070470021464A10600E
:10082000704738B50020009000BF2020FFF78BFEF6
:1008300005460098401C00900098B0F5C06F01D2AA
:10084000002DF2D02020FFF77EFE08B1012400E049
:100850000024204638BD00213A4A1060704700212C
:10086000394A1060704701462B4A506920F0330026
:100870000843506170470146274A506920F4706070
:1008800040EA0120506170470021304A10607047F3
:100890000146214A906920F0F00040EA0110906181
:1008A000704700212A4A1060704701461A4A906931
:1008B00020F00F000843906170470021254A106026
:1008C00070472DE9FC4F0146DFF84CB0DBF80CB067
:1008D0001BF0020F01D0204B00E0204BDFF838B0B6
:1008E000DBF80CB01BF0010F00D05B081C46DFF8F2
:1008F00028B0DBF80CB01BF0040F33D0DFF818B0D1
:10090000DBF804B0CBF3032B0BF1010BCDF800B0F7
:10091000DDF800B024E000000000024000800D403F
:10092000D807B04310000008880040428C004042C5
:100930000000404288014042800040428400404222
:10094000080240421002404220024042B4024042AB
:1009500024034042200340420024F40000127A00A5
:1009600004FB0BF4DFF8E4B1DBF80CB0CBF3012BA4
:10097000BBF1000F06D0BBF1010F08D0BBF1020F95
:1009800026D120E0DFF8C8B1C1F800B025E0DFF8DB
:10099000BCB1DBF80CB04FF0080E1EEA1B1F01D1F2
:1009A000A0460DE0DFF8A4B1DBF80CB0CBF3021BDE
:1009B0000BF1010B4FF0010E0EFA0BFEB4FBFEF82B
:1009C000C1F8008009E04FF4004BC1F800B004E02A
:1009D00049F6404BC1F800B000BF00BFDFF86CB172
:1009E000DBF810B01BF0020F01D05A4D00E0584D5B
:1009F000DFF858B1DBF810B01BF0010F00D06D0824
:100A00002F46DFF848B1DBF810B01BF0040F0DD013
:100A1000DFF838B1DBF804B0CBF3031B0BF1010BAB
:100A2000CDF800B0DDF800B007FB0BF7B946DFF8F2
:100A30001CB1DBF810B01BF0100F01D04FEA5909C0
:100A4000C1F80490DFF804B1DBF818B04FEA1B10CE
:100A500010F0080F02D1DFF8F8C00BE000F0070B30
:100A60000BF1010B4FF0010E0EFA0BF0DFF8E0B0C6
:100A7000BBFBF0FCC1F80CC0DFF8D0B0DBF818000D
:100A800010F0080F04D1DFF8CCB0CDF804B00DE0C1
:100A900000F0070B0BF1010B4FF0010E0EFA0BF0FB
:100AA000DFF8B0B0BBFBF0FBCDF804B0DDF804B06C
:100AB000C1F810B0DFF894B0DBF814B01BF0030BF2
:100AC00006D0BBF1010F05D0BBF1020F06D103E048
:100AD0001E4605E02E4603E0264601E03E4600BFE6
:100AE00000BFDFF868B0DBF814B0CBF3011BBBF13B
:100AF000000F06D0BBF1010F06D0BBF1020F08D1E9
:100B000005E04FF4004206E049F6404203E0324679
:100B100001E0624600BF00BFDFF830B0DBF814B080
:100B20004FEA1B2010F0080F01D1924609E000F0B7
:100B3000070B0BF1010B4FF0010E0EFA0BF0B2FB9D
:100B4000F0FAC1F808A0BDE8FC8F000000000240E8
:100B500000127A000024F400704770477047754611
:100B600000F028F8AE4605006946534620F007001D
:100B7000854618B020B5FFF777FBBDE820404FF061
:100B800000064FF000074FF000084FF0000B21F077
:100B90000701AC46ACE8C009ACE8C009ACE8C00944
:100BA000ACE8C0098D4670470446AFF3008020468C
:100BB000FFF7CDFA004870470400002001491820D3
:100BC000ABBEFEE72600020070470000EC0B0008F9
:100BD0000000002004000000FC000008F00B0008EA
:100BE00004000020640600001801000800127A00CA
:04000005080000C12E
:00000001FF
